S02900004C45442053657175656E63652056332E30204D4953524120636F6D706C69616E742E7372656343
S11300000C942A000C9434000C9434000C943400A6
S11300100C9434000C9434000C9434000C9434008C
S11300200C9434000C9434000C9434000C9434007C
S11300300C9434000C9434000C9434000C9434006C
S11300400C9434000C9434000C9434000C9434005C
S11300500C94340011241FBECFE5D8E0DEBFCDBF21
S11300600E9436000C94C7000C94000040E060E04D
S113007081E00E94410041E060E081E00E94430091
S1130080FFCF82E00895883008F079C04423D9F185
S1130090413009F076C0813091F028F08230D9F0F7
S11300A0833029F170C02BB381E090E002C0880F47
S11300B0991F6A95E2F7822B8BBB80E0089528B3E1
S11300C081E090E002C0880F991F6A95E2F7822BC5
S11300D088BB80E0089525B381E090E002C0880FDA
S11300E0991F6A95E2F7822B85BB80E0089522B3BD
S11300F081E090E002C0880F991F6A95E2F7822B95
S113010082BB80E00895813099F028F08230E9F0D4
S1130110833041F13AC02BB381E090E002C0880FF4
S1130120991F6A95E2F7809582238BBB80E008953E
S113013028B381E090E002C0880F991F6A95E2F726
S11301408095822388BB80E0089525B381E090E008
S113015002C0880F991F6A95E2F78095822385BBB8
S113016080E0089522B381E090E002C0880F991FD7
S11301706A95E2F78095822382BB80E0089582E04D
S1130180089583E0089581E0089581E00895F89446
S1050190FFCF9B
S9030000FC
