S02900004C45442053657175656E63652056332E30204D4953524120636F6D706C69616E742E7372656343
S11300000C942A000C944C030C9475030C949E03DA
S11300100C9447000C9447000C9447000C94470040
S11300200C9447000C9447000C9447000C94020471
S11300300C9447000C9447000C9447000C94470020
S11300400C9447000C9447000C9447000C94470010
S11300500C94470011241FBECFE5D8E0DEBFCDBF0E
S113006010E0A0E6B0E0E2E9FDE002C005900D92E8
S1130070A636B107D9F720E0A6E6B0E001C01D928C
S1130080A937B207E1F70E9489010C94C7060C94C2
S1130090000080916600909167008730910599F483
S11300A021E030E0A90102C0440F551F8A95E2F710
S11300B0CA0190916800809589238093680010920A
S11300C0670010926600809166009091670084300A
S11300D0910580F4AC014C5F5F4F21E030E002C039
S11300E0220F331F4A95E2F730916800232B2093A7
S11300F0680011C08430910570F021E030E0082ED2
S113010002C0220F331F0A94E2F730916800209551
S113011023232093680001969093670080936600E0
S11301200895789480E00E94C7030E94540481E8F3
S113013091E00E94FD0384E00E945A0185E00E9440
S11301405A0186E00E945A0187E00E945A0164E045
S113015082E00E94410162E081E00E94410182E06C
S11301600E94C50263E082E00E94D70269E470E065
S113017082E00E94370318BA0895CF93DF931F9249
S1130180CDB7DEB7AE014F5F5F4F64E082E00E94FF
S11301904E018981813081F4809164008F5F809366
S11301A0640007C0AE014F5F5F4F64E082E00E94CD
S11301B04E0189818130B1F30F90DF91CF91089581
S11301C00E94BD0080916400833009F128F48130DD
S11301D041F0823089F03AC0843021F1853059F100
S11301E035C0E0E6F0E084E690E09183808384E823
S11301F093E0938382830895E0E6F0E088EC90E056
S11302009183808380E293E0938382830895E0E680
S1130210F0E08CE291E0918380838CEB92E0938315
S113022082830895E0E6F0E084EF91E09183808397
S1130230938382830895E0E6F0E080E293E0918383
S1130240808388EC90E0938382830895E0E6F0E075
S113025084E690E09183808384E893E093838283AF
S113026081E080936400089580916800E0E6F0E006
S113027042815381608171810E9460010E94E0008B
S11302800895683038F4843038F441E00E948E01D7
S113029080E0089582E0089582E00895683030F4A3
S11302A0843030F40E94870280E0089582E008954B
S11302B082E0089540E0682F81E00E948E01089555
S11302C090916500913079F4882369F088BBCB0163
S11302D00E94580483E00E94EE03809165008F5FC2
S11302E080936500089590916500933049F418BA9D
S11302F0CA010E94580483E00E94EE031092650034
S11303000895809165008F5F809365000E94FA03D1
S113031008950E9491000E943401FDCF683008F0D6
S1130320ECC0413009F451C020F0423009F499C0C6
S1130330E6C08130B9F028F0823029F18330A1F190
S1130340E0C02AB381E090E002C0880F991F6A954B
S1130350E2F7922F982B9ABB9BB3809589238BBB92
S113036080E0089527B381E090E002C0880F991FD0
S11303706A95E2F7922F982B97BB98B380958923BF
S113038088BB80E0089524B381E090E002C0880F28
S1130390991F6A95E2F7922F982B94BB95B3809599
S11303A0892385BB80E0089521B381E090E002C0F9
S11303B0880F991F6A95E2F7922F982B91BB92B3FD
S11303C08095892382BB80E008958130B9F028F0BC
S11303D0823029F18330A1F196C02AB381E090E004
S11303E002C0880F991F6A95E2F78095922F98238F
S11303F09ABB9BB389238BBB80E0089527B381E02C
S113040090E002C0880F991F6A95E2F78095922FB9
S1130410982397BB98B3892388BB80E0089524B3BD
S113042081E090E002C0880F991F6A95E2F78095F9
S1130430922F982394BB95B3892385BB80E00895BC
S113044021B381E090E002C0880F991F6A95E2F71A
S11304508095922F982391BB92B3892382BB80E02D
S113046008958130B9F028F0823029F18330A1F168
S11304704CC02AB381E090E002C0880F991F6A95AE
S1130480E2F7982F909592239ABB9BB3892B8BBB51
S113049080E0089527B381E090E002C0880F991F9F
S11304A06A95E2F7982F9095922397BB98B3892B7E
S11304B088BB80E0089524B381E090E002C0880FF7
S11304C0991F6A95E2F7982F9095922394BB95B360
S11304D0892B85BB80E0089521B381E090E002C0C0
S11304E0880F991F6A95E2F7982F9095922391BBF4
S11304F092B3892B82BB80E0089582E0089581E065
S1130500089581E0089581E0089581E008956830B8
S1130510C0F5813091F028F08230D9F0833029F190
S113052032C089B390E002C0959587956A95E2F749
S11305308170FA01808380E0089586B390E002C060
S1130540959587956A95E2F78170FA01808380E03A
S1130550089583B390E002C0959587956A95E2F774
S11305608170FA01808380E0089580B390E002C036
S1130570959587956A95E2F78170FA01808380E00A
S1130580089582E0089581E00895813041F018F0E3
S1130590823049F008958BB780648BBF08958BB780
S11305A080688BBF08958BB780628BBF08958130BC
S11305B049F120F0823009F449C00895613069F0AE
S11305C028F0623089F06330B1F0089585B78E7FEA
S11305D085BF85B78D7F85BF089585B7816085BF49
S11305E085B78D7F85BF089585B78E7F85BF85B715
S11305F0826085BF089585B7816085BF85B78260B5
S113060085BF0895613069F028F0623089F0633065
S1130610B1F0089585B78B7F85BF85B7877F85BF88
S1130620089585B7846085BF85B7877F85BF0895A2
S113063085B78B7F85BF85B7886085BF089585B7EB
S1130640846085BF85B7886085BF0895623019F0DE
S1130650633029F008C084B78F7B84BF089584B7C2
S1130660806484BF089584B78F7B84BF08958130EC
S113067049F018F0823059F0089570936E00609339
S11306806D00089570936C0060936B0008957093EF
S11306906A006093690008951F920F920FB60F923B
S11306A011242F933F934F935F936F937F938F9373
S11306B09F93AF93BF93EF93FF93E0916D00F091FD
S11306C06E00309709F00995FF91EF91BF91AF91BA
S11306D09F918F917F916F915F914F913F912F9156
S11306E00F900FBE0F901F9018951F920F920FB688
S11306F00F9211242F933F934F935F936F937F93A4
S11307008F939F93AF93BF93EF93FF93E0916B000D
S1130710F0916C00309709F00995FF91EF91BF912A
S1130720AF919F918F917F916F915F914F913F9185
S11307302F910F900FBE0F901F9018951F920F923C
S11307400FB60F9211242F933F934F935F936F93A0
S11307507F938F939F93AF93BF93EF93FF93E09116
S11307606900F0916A00309709F00995FF91EF91C3
S1130770BF91AF919F918F917F916F915F914F91B5
S11307803F912F910F900FBE0F901F9018958130BD
S113079069F028F0823089F08330B1F01CC083B74F
S11307A08F7B83BF83B7877F83BF17C083B7806482
S11307B083BF83B7877F83BF10C083B78F7B83BF1B
S11307C083B7886083BF09C083B7806483BF83B75E
S11307D0886083BF02C081E008950895883040F4A2
S11307E093B7987F93BF93B7892B83BF84E0089511
S11307F080E0089583B713BE0895909378008093A2
S1130800770008951F920F920FB60F9211242F9321
S11308103F934F935F936F937F938F939F93AF9384
S1130820BF93EF93FF9380916F0090917000A0911C
S11308307100B09172004091730050917400609106
S113084075007091760084179507A607B70781F4A1
S113085010926F001092700010927100109272004A
S1130860E0917700F0917800309769F009950BC01A
S11308700196A11DB11D80936F0090937000A09309
S11308807100B0937200FF91EF91BF91AF919F916E
S11308908F917F916F915F914F913F912F910F9025
S11308A00FBE0F901F90189589B7816089BF089576
S11308B08F929F92AF92BF92CF92DF92EF92FF926C
S11308C0BC0180E090E00E94CC054B015C012FE666
S11308D032E143E85FE30E942B050E949D056B0112
S11308E07C0182E0C816D104E104F10428F1C701B7
S11308F0B60161507109810991090E94CC052FE666
S113090032E143E85FE30E945A069B01AC01C50152
S1130910B4010E94BE042FE632E143E85BE30E9487
S11309202B059B01AC0160E070E080E893E40E9439
S1130930BE040E949D0510C0A50194016FE672E1FA
S113094083E89FE30E94BE042FE632E143E85BE3C1
S11309500E942B050E949D0562BFC0927300D09235
S11309607400E0927500F0927600FF90EF90DF90B3
S1130970CF90BF90AF909F908F9008955058BB2711
S1130980AA270E94D6040C9420060E94120638F06E
S11309900E94190620F039F49F3F19F426F40C94B0
S11309A00F060EF4E095E7FB0C940906E92F0E946C
S11309B0310658F3BA17620773078407950720F0C6
S11309C079F4A6F50C9453060EF4E0950B2EBA2F89
S11309D0A02D0B01B90190010C01CA01A001112441
S11309E0FF27591B99F0593F50F4503E68F11A16ED
S11309F0F040A22F232F342F4427585FF3CF46957E
S1130A0037952795A795F0405395C9F77EF41F169F
S1130A10BA0B620B730B840BBAF09150A1F0FF0F69
S1130A20BB1F661F771F881FC2F70EC0BA0F621F55
S1130A30731F841F48F4879577956795B795F79545
S1130A409E3F08F0B0CF9395880F08F09927EE0FDA
S1130A509795879508950E943F050C9420060E945F
S1130A60190658F00E94120640F029F45F3F29F05D
S1130A700C94090651110C9454060C940F060E9410
S1130A80310668F39923B1F3552391F3951B550B64
S1130A90BB27AA2762177307840738F09F5F5F4F4D
S1130AA0220F331F441FAA1FA9F335D00E2E3AF08C
S1130AB0E0E832D091505040E695001CCAF72BD0A4
S1130AC0FE2F29D0660F771F881FBB1F26173707F5
S1130AD04807AB07B0E809F0BB0B802DBF01FF2727
S1130AE093585F4F3AF09E3F510578F00C940906F5
S1130AF00C9454065F3FE4F3983ED4F386957795BF
S1130B006795B795F7959F5FC9F7880F911D9695DF
S1130B10879597F90895E1E0660F771F881FBB1F3B
S1130B20621773078407BA0720F0621B730B840BE8
S1130B30BA0BEE1F88F7E09508950E94390688F0F5
S1130B409F5798F0B92F9927B751B0F0E1F0660F8D
S1130B50771F881F991F1AF0BA95C9F714C0B130CE
S1130B6091F00E945306B1E008950C945306672F48
S1130B70782F8827B85F39F0B93FCCF386957795FD
S1130B806795B395D9F73EF49095809570956195E6
S1130B907F4F8F4F9F4F0895E89409C097FB3EF411
S1130BA090958095709561957F4F8F4F9F4F9923B6
S1130BB0A9F0F92F96E9BB279395F6958795779534
S1130BC06795B795F111F8CFFAF4BB0F11F460FFF4
S1130BD01BC06F5F7F4F8F4F9F4F16C0882311F04C
S1130BE096E911C0772321F09EE8872F762F05C060
S1130BF0662371F096E8862F70E060E02AF09A95FB
S1130C00660F771F881FDAF7880F9695879597F9EF
S1130C10089597F99F6780E870E060E008959FEF7A
S1130C2080EC089500240A9416161706180609067F
S1130C30089500240A94121613061406050608954E
S1130C40092E0394000C11F4882352F0BB0F40F4D6
S1130C50BF2B11F460FF04C06F5F7F4F8F4F9F4F16
S1130C60089557FD9058440F551F59F05F3F71F098
S1130C704795880F97FB991F61F09F3F79F08795FF
S1130C800895121613061406551FF2CF4695F1DF88
S1130C9008C0161617061806991FF1CF8695710518
S1130CA0610508940895E894BB2766277727CB014C
S1130CB097F908950E946D060C9420060E9412066E
S1130CC038F00E94190620F0952311F00C940906BF
S1130CD00C940F0611240C9454060E94310670F3F0
S1130CE0959FC1F3950F50E0551F629FF001729FCD
S1130CF0BB27F00DB11D639FAA27F00DB11DAA1FDC
S1130D00649F6627B00DA11D661F829F2227B00D28
S1130D10A11D621F739FB00DA11D621F839FA00DB3
S1130D20611D221F749F3327A00D611D231F849F03
S1130D30600D211D822F762F6A2F11249F5750405A
S1130D409AF0F1F088234AF0EE0FFF1FBB1F661FD5
S1130D50771F881F91505040A9F79E3F510580F09E
S1130D600C9409060C9454065F3FE4F3983ED4F3C4
S1130D70869577956795B795F795E7959F5FC1F742
S1130D80FE2B880F911D9695879597F90895F894F1
S1050D90FFCF8F
S1090D926400840301016A
S9030000FC
