S02900004C45442053657175656E63652056332E30204D4953524120636F6D706C69616E742E7372656343
S11300000C942A000C94EC020C9415030C943E03FB
S11300100C9447000C9447000C9447000C94470040
S11300200C9447000C9447000C9447000C949A03DA
S11300300C9447000C9447000C9447000C94470020
S11300400C9447000C9447000C9447000C94470010
S11300500C94470011241FBECFE5D8E0DEBFCDBF0E
S113006010E0A0E6B0E0EEE6FCE002C005900D92E0
S1130070A636B107D9F720E0A6E6B0E001C01D928C
S1130080A237B207E1F70E9465010C9435060C947F
S11300900000809166009091670087309105D1F44B
S11300A0049721E030E0A90102C0440F551F8A954E
S11300B0E2F7CA018095909520916800309169001B
S11300C082239323909369008093680010926700C1
S11300D010926600809166009091670084309105CB
S11300E098F421E030E0082E02C0220F331F0A9456
S11300F0E2F74091680050916900242B352B30932E
S113010069002093680019C084309105B0F0AC01F7
S11301104450510921E030E002C0220F331F4A95B8
S1130120E2F72095309540916800509169002423AE
S113013035233093690020936800019690936700FB
S11301408093660008958091640090916500019603
S113015090936500809364008330910519F130F425
S11301608130910549F0029791F03BC084309105AC
S113017021F1059759F135C0E0E6F0E084E690E01E
S11301809183808384E893E0938382830895E0E6F7
S1130190F0E088EC90E09183808380E293E09383A5
S11301A082830895E0E6F0E08CE291E0918380831D
S11301B08CEB92E0938382830895E0E6F0E084EF91
S11301C091E091838083938382830895E0E6F0E055
S11301D080E293E09183808388EC90E09383828330
S11301E00895E0E6F0E084E690E09183808384E87B
S11301F093E09383828381E090E090936500809301
S113020064000895E0E6F0E04281538160817181E9
S113021080916800909169000E945701F3CF78940F
S113022080E00E94670380E00E94510181E00E9407
S1130230510182E00E94510183E00E94510164E077
S113024082E00E94440162E083E00E94440163E092
S113025083E00E94440180E00E94650263E080E044
S11302600E94770263EA70E080E00E94D70281E096
S11302700E94650263E081E00E94770269E470E015
S113028081E00E94D7020895683038F4843038F44D
S113029041E00E946C0180E0089582E0089582E0CC
S11302A0089540E0682F81E00E946C010895CF9387
S11302B0DF93EA0188BBCB010E94C30318BACE01C5
S11302C00E94C303DF91CF9108950E940F010E9401
S11302D0020180E090E00895683008F0ECC04130FD
S11302E009F451C020F0423009F499C0E6C08130CD
S11302F0B9F028F0823029F18330A1F1E0C02AB3AB
S113030081E090E002C0880F991F6A95E2F7922F6E
S1130310982B9ABB9BB3809589238BBB80E008956F
S113032027B381E090E002C0880F991F6A95E2F735
S1130330922F982B97BB98B38095892388BB80E034
S1130340089524B381E090E002C0880F991F6A9554
S1130350E2F7922F982B94BB95B38095892385BBA4
S113036080E0089521B381E090E002C0880F991FD6
S11303706A95E2F7922F982B91BB92B380958923CB
S113038082BB80E008958130B9F028F0823029F1F1
S11303908330A1F196C02AB381E090E002C0880FB7
S11303A0991F6A95E2F78095922F98239ABB9BB385
S11303B089238BBB80E0089527B381E090E002C0DD
S11303C0880F991F6A95E2F78095922F982397BB1F
S11303D098B3892388BB80E0089524B381E090E03A
S11303E002C0880F991F6A95E2F78095922F98238F
S11303F094BB95B3892385BB80E0089521B381E044
S113040090E002C0880F991F6A95E2F78095922FB9
S1130410982391BB92B3892382BB80E008958130F5
S1130420B9F028F0823029F18330A1F14CC02AB30D
S113043081E090E002C0880F991F6A95E2F7982F37
S1130440909592239ABB9BB3892B8BBB80E0089534
S113045027B381E090E002C0880F991F6A95E2F704
S1130460982F9095922397BB98B3892B88BB80E0F3
S1130470089524B381E090E002C0880F991F6A9523
S1130480E2F7982F9095922394BB95B3892B85BB63
S113049080E0089521B381E090E002C0880F991FA5
S11304A06A95E2F7982F9095922391BB92B3892B8A
S11304B082BB80E0089582E0089581E0089581E0A0
S11304C0089581E0089581E00895813041F018F0A5
S11304D0823049F008958BB780648BBF08958BB741
S11304E080688BBF08958BB780628BBF089581307D
S11304F049F120F0823009F449C00895613069F06F
S113050028F0623089F06330B1F0089585B78E7FAA
S113051085BF85B78D7F85BF089585B7816085BF09
S113052085B78D7F85BF089585B78E7F85BF85B7D5
S1130530826085BF089585B7816085BF85B7826075
S113054085BF0895613069F028F0623089F0633026
S1130550B1F0089585B78B7F85BF85B7877F85BF49
S1130560089585B7846085BF85B7877F85BF089563
S113057085B78B7F85BF85B7886085BF089585B7AC
S1130580846085BF85B7886085BF0895623019F09F
S1130590633029F008C084B78F7B84BF089584B783
S11305A0806484BF089584B78F7B84BF08958130AD
S11305B049F018F0823059F0089570936F006093F9
S11305C06E00089570936D0060936C0008957093AD
S11305D06B0060936A0008951F920F920FB60F92FA
S11305E011242F933F934F935F936F937F938F9334
S11305F09F93AF93BF93EF93FF93E0916E00F091BD
S11306006F00309709F00995FF91EF91BF91AF9179
S11306109F918F917F916F915F914F913F912F9116
S11306200F900FBE0F901F9018951F920F920FB648
S11306300F9211242F933F934F935F936F937F9364
S11306408F939F93AF93BF93EF93FF93E0916C00CD
S1130650F0916D00309709F00995FF91EF91BF91EA
S1130660AF919F918F917F916F915F914F913F9146
S11306702F910F900FBE0F901F9018951F920F92FD
S11306800FB60F9211242F933F934F935F936F9361
S11306907F938F939F93AF93BF93EF93FF93E091D7
S11306A06A00F0916B00309709F00995FF91EF9182
S11306B0BF91AF919F918F917F916F915F914F9176
S11306C03F912F910F900FBE0F901F90189581307E
S11306D069F028F0823089F08330B1F01CC083B710
S11306E08F7B83BF83B7877F83BF17C083B7806443
S11306F083BF83B7877F83BF10C083B78F7B83BFDC
S113070083B7886083BF09C083B7806483BF83B71E
S1130710886083BF02C081E008950895883040F462
S113072093B7987F93BF93B7892B83BF84E00895D1
S113073080E008951F920F920FB60F9211242F9309
S11307403F934F935F936F937F938F939F93AF9355
S1130750BF93EF93FF93E0917000F0917100309795
S113076009F00995FF91EF91BF91AF919F918F91FE
S11307707F916F915F914F913F912F910F900FBE99
S11307800F901F901895CF92DF92EF92FF92CF9324
S1130790DF93BC0180E090E00E943A056B017C018C
S11307A02FE632E143E85EE30E9499040E940B05C0
S11307B0EB01623071052CF161507109072E000CB8
S11307C0880B990B0E943C052FE632E143E85EE377
S11307D00E94C8059B01AC01C701B6010E942C040C
S11307E02FE632E143E85AE30E9499049B01AC01ED
S11307F060E070E080E893E40E942C040E940B0502
S113080010C0A70196016FE672E183E89EE30E949F
S11308102C042FE632E143E85AE30E9499040E9433
S11308200B0562BF82E00E948E0307C008B600FE7B
S1130830FDCF88B7816088BFE9019E01215031094D
S1130840CD2BA1F783B78C7F83BFDF91CF91FF902E
S1130850EF90DF90CF9008955058BB27AA270E94AD
S113086044040C948E050E94800538F00E9487058C
S113087020F039F49F3F19F426F40C947D050EF40E
S1130880E095E7FB0C947705E92F0E949F0558F348
S1130890BA17620773078407950720F079F4A6F561
S11308A00C94C1050EF4E0950B2EBA2FA02D0B016C
S11308B0B90190010C01CA01A0011124FF27591BA1
S11308C099F0593F50F4503E68F11A16F040A22FA7
S11308D0232F342F4427585FF3CF46953795279518
S11308E0A795F0405395C9F77EF41F16BA0B620B17
S11308F0730B840BBAF09150A1F0FF0FBB1F661F5E
S1130900771F881FC2F70EC0BA0F621F731F841FA0
S113091048F4879577956795B795F7959E3F08F0C6
S1130920B0CF9395880F08F09927EE0F9795879588
S113093008950E94AD040C948E050E94870558F01A
S11309400E94800540F029F45F3F29F00C9477055C
S113095051110C94C2050C947D050E949F0568F307
S11309609923B1F3552391F3951B550BBB27AA2764
S113097062177307840738F09F5F5F4F220F331F9E
S1130980441FAA1FA9F335D00E2E3AF0E0E832D066
S113099091505040E695001CCAF72BD0FE2F29D069
S11309A0660F771F881FBB1F261737074807AB073B
S11309B0B0E809F0BB0B802DBF01FF2793585F4FB0
S11309C03AF09E3F510578F00C9477050C94C205DB
S11309D05F3FE4F3983ED4F3869577956795B79592
S11309E0F7959F5FC9F7880F911D9695879597F99D
S11309F00895E1E0660F771F881FBB1F6217730716
S1130A008407BA0720F0621B730B840BBA0BEE1F2A
S1130A1088F7E09508950E94A70588F09F5798F0FD
S1130A20B92F9927B751B0F0E1F0660F771F881FEF
S1130A30991F1AF0BA95C9F714C0B13091F00E9409
S1130A40C105B1E008950C94C105672F782F88275C
S1130A50B85F39F0B93FCCF3869577956795B39530
S1130A60D9F73EF490958095709561957F4F8F4F9F
S1130A709F4F0895E89409C097FB3EF490958095A4
S1130A80709561957F4F8F4F9F4F9923A9F0F92F50
S1130A9096E9BB279395F695879577956795B795CE
S1130AA0F111F8CFFAF4BB0F11F460FF1BC06F5FB4
S1130AB07F4F8F4F9F4F16C0882311F096E911C0C6
S1130AC0772321F09EE8872F762F05C0662371F0E7
S1130AD096E8862F70E060E02AF09A95660F771FFB
S1130AE0881FDAF7880F9695879597F9089597F9EF
S1130AF09F6780E870E060E008959FEF80EC0895C0
S1130B0000240A94161617061806090608950024E8
S1130B100A9412161306140605060895092E039462
S1130B20000C11F4882352F0BB0F40F4BF2B11F4D6
S1130B3060FF04C06F5F7F4F8F4F9F4F089557FD35
S1130B409058440F551F59F05F3F71F04795880F37
S1130B5097FB991F61F09F3F79F0879508951216CE
S1130B6013061406551FF2CF4695F1DF08C016167A
S1130B7017061806991FF1CF86957105610508942B
S1130B800895E894BB2766277727CB0197F9089542
S1130B900E94DB050C948E050E94800538F00E94AB
S1130BA0870520F0952311F00C9477050C947D05AE
S1130BB011240C94C2050E949F0570F3959FC1F304
S1130BC0950F50E0551F629FF001729FBB27F00DF7
S1130BD0B11D639FAA27F00DB11DAA1F649F66274C
S1130BE0B00DA11D661F829F2227B00DA11D621F9B
S1130BF0739FB00DA11D621F839FA00D611D221F55
S1130C00749F3327A00D611D231F849F600D211D38
S1130C10822F762F6A2F11249F5750409AF0F1F0BB
S1130C2088234AF0EE0FFF1FBB1F661F771F881F24
S1130C3091505040A9F79E3F510580F00C947705E0
S1130C400C94C2055F3FE4F3983ED4F38695779500
S1130C506795B795F795E7959F5FC1F7FE2B880FCA
S1110C60911D9695879597F90895F894FFCF06
S1090C6E64008403010090
S9030000FC
