S02900004C45442053657175656E63652056332E30204D4953524120636F6D706C69616E742E7372656343
S11300000C942A000C94DA000C9403010C942C0137
S11300100C9447000C94F9010C94D0010C94470003
S11300200C94A7010C947E010C9447000C94550188
S11300300C9447000C9447000C9447000C94470020
S11300400C9447000C9447000C9447000C94470010
S11300500C94470011241FBECFE5D8E0DEBFCDBF0E
S113006010E0A0E6B0E0E8E4F4E002C005900D92F0
S1130070A036B107D9F720E0A0E6B0E001C01D9298
S1130080A037B207E1F70E9449000C9422020C94B5
S1130090000040E060E081E00E94540041E060E044
S11300A081E00E945600FFCF82E00895883008F076
S11300B079C04423D9F1413009F076C0813091F000
S11300C028F08230D9F0833029F170C02BB381E05D
S11300D090E002C0880F991F6A95E2F7822B8BBBD0
S11300E080E0089528B381E090E002C0880F991F52
S11300F06A95E2F7822B88BB80E0089525B381E0FE
S113010090E002C0880F991F6A95E2F7822B85BBA5
S113011080E0089522B381E090E002C0880F991F27
S11301206A95E2F7822B82BB80E00895813099F0D2
S113013028F08230E9F0833041F13AC02BB381E0FA
S113014090E002C0880F991F6A95E2F78095822398
S11301508BBB80E0089528B381E090E002C0880F53
S1130160991F6A95E2F78095822388BB80E0089501
S113017025B381E090E002C0880F991F6A95E2F7E9
S11301808095822385BB80E0089522B381E090E0CE
S113019002C0880F991F6A95E2F78095822382BB7B
S11301A080E0089582E0089583E0089581E0089551
S11301B081E008951F920F920FB60F9211242F938E
S11301C03F934F935F936F937F938F939F93AF93DB
S11301D0BF93EF93FF93E0916400F0916500309733
S11301E009F00995FF91EF91BF91AF919F918F9184
S11301F07F916F915F914F913F912F910F900FBE1F
S11302000F901F9018951F920F920FB60F92112402
S11302102F933F934F935F936F937F938F939F930A
S1130220AF93BF93EF93FF93E0916200F09163006B
S1130230309709F00995FF91EF91BF91AF919F918C
S11302408F917F916F915F914F913F912F910F907B
S11302500FBE0F901F9018951F920F920FB60F921A
S113026011242F933F934F935F936F937F938F93B7
S11302709F93AF93BF93EF93FF93E0916000F0914E
S11302806100309709F00995FF91EF91BF91AF910B
S11302909F918F917F916F915F914F913F912F919A
S11302A00F900FBE0F901F9018951F920F920FB6CC
S11302B00F9211242F933F934F935F936F937F93E8
S11302C08F939F93AF93BF93EF93FF93E0916E004F
S11302D0F0916F00309709F00995FF91EF91BF916C
S11302E0AF919F918F917F916F915F914F913F91CA
S11302F02F910F900FBE0F901F9018951F920F9281
S11303000FB60F9211242F933F934F935F936F93E4
S11303107F938F939F93AF93BF93EF93FF93E0915A
S11303206C00F0916D00309709F00995FF91EF9101
S1130330BF91AF919F918F917F916F915F914F91F9
S11303403F912F910F900FBE0F901F9018951F9201
S11303500F920FB60F9211242F933F934F935F93F5
S11303606F937F938F939F93AF93BF93EF93FF9379
S1130370E0916A00F0916B00309709F00995FF91C4
S1130380EF91BF91AF919F918F917F916F915F9109
S11303904F913F912F910F900FBE0F901F90189582
S11303A01F920F920FB60F9211242F933F934F93E6
S11303B05F936F937F938F939F93AF93BF93EF93C9
S11303C0FF93E0916800F0916900309709F0099576
S11303D0FF91EF91BF91AF919F918F917F916F9119
S11303E05F914F913F912F910F900FBE0F901F90EF
S11303F018951F920F920FB60F9211242F933F93CB
S11304004F935F936F937F938F939F93AF93BF9318
S1130410EF93FF93E0916600F0916700309709F045
S11304200995FF91EF91BF91AF919F918F917F912A
S11304306F915F914F913F912F910F900FBE0F904D
S10B04401F901895F894FFCFFA
S9030000FC
