S02900004C45442053657175656E63652056312E30204D4953524120636F6D706C69616E742E7372656345
S11300000C942A000C9434000C9434000C943400A6
S11300100C9434000C9434000C9434000C9434008C
S11300200C9434000C9434000C9434000C9434007C
S11300300C9434000C9434000C9434000C9434006C
S11300400C9434000C9434000C9434000C9434005C
S11300500C94340011241FBECFE5D8E0DEBFCDBF21
S11300600E94CE000C948E020C940000CF93DF9378
S11300701F92CDB7DEB781E0898300E010E0E12C68
S1130080F12C22C0AE014F5F5F4F60E083E00E941D
S1130090B6008981811118C024E0E216F10494F4B9
S11300A041E06E2D81E00E94CC018FEFE81AF80A3E
S11300B09FEF22E587E0915020408040E1F700C0A7
S11300C0000002C001E010E001151105D9F20F2E65
S11300D0F3E0EF2EF12CF02D1EC0AE014F5F5F4F09
S11300E060E083E00E94B6008981811114C083E03E
S11300F08E190E94C80091E0E91AF10852F02FEF1E
S113010082E597E0215080409040E1F700C0000074
S113011002C000E010E001151105F9F62FEF82E5A9
S113012097E0215080409040E1F700C00000A7CF45
S113013080E00E94C20081E00E94C20082E00E942E
S1130140C20083E00E94C20060E083E00E94A90034
S11301500895683038F4843038F442E00E94D300C3
S113016080E0089582E0089582E00895683030F4D4
S1130170843030F40E94500280E0089582E00895B3
S113018082E0089540E0682F81E00E94D300089542
S113019040E0682F81E00E94CC0108950E949800FD
S11301A00E943600FDCF683008F0ECC0413009F4FD
S11301B051C020F0423009F499C0E6C08130B9F052
S11301C028F0823029F18330A1F1E0C02AB381E024
S11301D090E002C0880F991F6A95E2F7922F982B3E
S11301E09ABB9BB3809589238BBB80E0089527B38A
S11301F081E090E002C0880F991F6A95E2F7922F80
S1130200982B97BB98B38095892388BB80E0089589
S113021024B381E090E002C0880F991F6A95E2F749
S1130220922F982B94BB95B38095892385BB80E04E
S1130230089521B381E090E002C0880F991F6A9568
S1130240E2F7922F982B91BB92B38095892382BBBE
S113025080E008958130B9F028F0823029F18330AC
S1130260A1F196C02AB381E090E002C0880F991FE3
S11302706A95E2F78095922F98239ABB9BB38923C2
S11302808BBB80E0089527B381E090E002C0880F23
S1130290991F6A95E2F78095922F982397BB98B39C
S11302A0892388BB80E0089524B381E090E002C0F4
S11302B0880F991F6A95E2F78095922F982394BB33
S11302C095B3892385BB80E0089521B381E090E054
S11302D002C0880F991F6A95E2F78095922F9823A0
S11302E091BB92B3892382BB80E008958130B9F039
S11302F028F0823029F18330A1F14CC02AB381E087
S113030090E002C0880F991F6A95E2F7982F9095A4
S113031092239ABB9BB3892B8BBB80E0089527B3B0
S113032081E090E002C0880F991F6A95E2F7982F48
S11303309095922397BB98B3892B88BB80E008954E
S113034024B381E090E002C0880F991F6A95E2F718
S1130350982F9095922394BB95B3892B85BB80E00D
S1130360089521B381E090E002C0880F991F6A9537
S1130370E2F7982F9095922391BB92B3892B82BB7D
S113038080E0089582E0089581E0089581E0089571
S113039081E0089581E00895883008F079C044230D
S11303A0D9F1413009F076C0813091F028F08230E3
S11303B0D9F0833029F170C02BB381E090E002C002
S11303C0880F991F6A95E2F7822B8BBB80E0089512
S11303D028B381E090E002C0880F991F6A95E2F784
S11303E0822B88BB80E0089525B381E090E002C0B1
S11303F0880F991F6A95E2F7822B85BB80E00895E8
S113040022B381E090E002C0880F991F6A95E2F759
S1130410822B82BB80E00895813099F028F08230ED
S1130420E9F0833041F13AC02BB381E090E002C09F
S1130430880F991F6A95E2F7809582238BBB80E031
S1130440089528B381E090E002C0880F991F6A954F
S1130450E2F78095822388BB80E0089525B381E08C
S113046090E002C0880F991F6A95E2F78095822375
S113047085BB80E0089522B381E090E002C0880F3C
S1130480991F6A95E2F78095822382BB80E00895E4
S113049082E0089583E0089581E0089581E008955D
S11304A06830C0F5813091F028F08230D9F0833083
S11304B029F132C089B390E002C0959587956A9579
S11304C0E2F78170FA01808380E0089586B390E0BA
S11304D002C0959587956A95E2F78170FA01808349
S11304E080E0089583B390E002C0959587956A955E
S11304F0E2F78170FA01808380E0089580B390E090
S113050002C0959587956A95E2F78170FA01808318
S113051080E0089582E0089581E00895F894FFCF83
S9030000FC
